S01E000050726F796563746F5F50616C614361726761646F72612E7372656350
S11300000C9434000C9451000C9451000C94510045
S11300100C9426020C9451000C9451000C94510041
S11300200C9451000C9451000C9451000C94510008
S11300300C9451000C9451000C9451000C945100F8
S11300400C9451000C9451000C94E1020C94510056
S11300500C9451000C947D020C9451000C945100AA
S11300600C9451000C94510011241FBECFEFD8E022
S1130070DEBFCDBF11E0A0E0B1E0E8E9FBE002C0E3
S113008005900D92AC30B107D9F721E0ACE0B1E0B6
S113009001C01D92A732B207E1F70E94E4000C945C
S11300A0CA050C940000ECE7F0E0108280818064C3
S11300B080838081806280838081887F8460808364
S11300C0EAE7F0E010828081806880838081886024
S11300D0808380818760808310927B00AEE7B0E0EC
S11300E08C9180638C938081806480830895682FD1
S11300F070E080E090E00E94B50420E030E04FE73B
S113010053E40E94140424EA30EF46E852E40E94C7
S1130110430524EA30EF45E153E40E94A8030E941A
S11301208604CB010895682F70E080E090E00E947F
S1130130B50420E030E04FE753E40E94140426E8BD
S11301403BEE4CEC52E40E94430526E636EE45EEC7
S113015052E40E94A8030E948604CB010895682FEC
S113016070E080E090E00E94B50420E030E04FE7CA
S113017053E40E94140420E030E040EA50E40E947A
S1130180430520E030E040E151E40E94A8030E94CE
S11301908604862F0895F89417B8ECE6F0E0808181
S11301A087608083E8E6F0E08081826080838AB1A2
S11301B0846F8AB90E9409030E9435030E946A036E
S11301C00E94530078940895E1E6F0E080E880838B
S11301D081E080830E94CB0080911001811117C0BF
S11301E08BB180628BB98BB18B7E8BB980912301EB
S11301F08093210180911E0180931C01809119013B
S113020080931701809115018093130141C080915F
S11302101001813039F58BB180618BB98BB18B7D45
S11302208BB980910D0190910E010E94B0058093CD
S1130230210180910401909105010E94B0058093F1
S11302401C0180910201909103010E94B0058093EA
S1130250170180910001909101010E94B0058093E3
S1130260130116C08BB184608BB98BB18F7C8BB9B1
S1130270809122018093210180911D0180931C01B2
S113028080911801809317018091140180931301C8
S113029080910F01813011F56091230180910D014E
S11302A090910E010E94B80560911E018091040195
S11302B0909105010E94B805609119018091020195
S11302C0909103010E94B80560911501809100018D
S11302D0909101010E94B80510920F0180910C01C8
S11302E0813009F069C0E0912501F09126018081F7
S11302F08130B1F405C080810E948903CF5F01C0C1
S1130300C0E0A0912501B0912601FD01EC0FF11D83
S113031080818111F0CF11968C91809322014AC083
S113032080818230B1F405C080810E948903CF5F4F
S113033001C0C0E0A0912501B0912601FD01EC0FA0
S1130340F11D80818111F0CF11968C9180931D0154
S113035031C080818330B1F405C080810E9489035B
S1130360CF5F01C0C0E0A0912501B0912601FD013D
S1130370EC0FF11D80818111F0CF11968C91809347
S1130380180118C080818430A9F405C080810E94BE
S11303908903CF5F01C0C0E0A0912501B09126017F
S11303A0FD01EC0FF11D80818111F0CF11968C912C
S11303B08093140110920C01809117010E94770020
S11303C09093200180931F010E942B0380911C01B4
S11303D00E94930090931B0180931A010E943003A2
S11303E0809121010E94AF00809316010E94510365
S11303F0809113018B3788F48BB18F778BB98BB1D4
S113040080648BB9909113018AE7891B0E9454037D
S1130410809312010E944E03DFCE853838F48BB1ED
S11304208F738BB980E00E944E03D6CE8BB18F7B45
S11304308BB98BB180688BB98091130185580E9468
S11304405403809312010E944E03C6CE1F920F9252
S11304500FB60F9211242F933F934F935F936F9393
S11304607F938F939F93AF93BF93EF93FF933099B1
S113047023C080911001811108C081E08093100194
S113048086E091E00E94900327C0809110018130A2
S113049041F482E08093100188E091E00E9490038F
S11304A01BC0809110018230B9F4109210018AE0CF
S11304B091E00E94900310C031990EC08091100108
S11304C0811104C081E080930F0106C08091100166
S11304D0823011F480930F01FF91EF91BF91AF919E
S11304E09F918F917F916F915F914F913F912F9148
S11304F00F900FBE0F901F9018951F920F920FB67A
S11305000F9211248F93EF93FF93EAE7F0E0808139
S11305108F77808380911101811110C080917900BF
S113052080932301ECE7F0E08081887F85608083FD
S1130530809111018F5F8093110133C0809111016B
S1130540813081F48091790080931E01ECE7F0E022
S11305508081887F86608083809111018F5F809382
S113056011011FC080911101823079F480917900CA
S113057080931901ECE7F0E08081876080838091AB
S113058011018F5F809311010CC0809179008093D9
S11305901501ECE7F0E08081887F8460808310920D
S11305A01101EAE7F0E080818068808380818064C3
S11305B08083FF91EF918F910F900FBE0F901F904A
S11305C018951F920F920FB60F9211248F939F9339
S11305D0EF93FF9381E080930C0190E008C0809139
S11305E0C60080838091C0008823E4F79F5FE09178
S11305F02501F0912601E90FF11D80818111EFCFD2
S1130600FF91EF919F918F910F900FBE0F901F90CC
S1130610189584B1876284B985B18F7D85B9E0E886
S1130620F0E01082A1E8B0E01C92808180688083B1
S11306308081806280838081826080838C918861E4
S11306408C938C9183608C9389E08093870083ECF6
S1130650809386000895909389008093880008957C
S113066090938B0080938A00089584B1886084B944
S11306708AB188608AB9E0EBF0E01082A1EBB0E0C7
S11306801C928081806880838081806280838081E5
S1130690836080838C9187608C9308958093B300EA
S11306A008958093B4000895682F70E080E090E08E
S11306B00E94B50420E030E044EF52E40E941404A8
S11306C020E030E04FE753E40E9443050E94860493
S11306D0862F08958AB18E7F8AB98AB182608AB9D9
S11306E0E0ECF0E01082808182608083E1ECF0E055
S11306F01082808188698083E2ECF0E0108280813E
S11307008660808387E690E09093C5008093C40060
S113071008959091C00095FFFCCF8093C600089582
S1130720AC0120E007C09091C00095FFFCCF30934E
S1130730C6002F5FFA01E20FF11D30813111F3CFB2
S11307408AE00E9489038DE00E948903089550582D
S1130750BB27AA270E94BF030C9409050E94FB042F
S113076038F00E94020520F039F49F3F19F426F472
S11307700C94F8040EF4E095E7FB0C94F204E92FD2
S11307800E941A0558F3BA1762077307840795077E
S113079020F079F4A6F50C943C050EF4E0950B2EAC
S11307A0BA2FA02D0B01B90190010C01CA01A001BF
S11307B01124FF27591B99F0593F50F4503E68F11A
S11307C01A16F040A22F232F342F4427585FF3CF5B
S11307D0469537952795A795F0405395C9F77EF42C
S11307E01F16BA0B620B730B840BBAF09150A1F075
S11307F0FF0FBB1F661F771F881FC2F70EC0BA0FFB
S1130800621F731F841F48F4879577956795B79582
S1130810F7959E3F08F0B0CF9395880F08F099277D
S1130820EE0F9795879508950E9428040C94090566
S11308300E94020558F00E94FB0440F029F45F3F37
S113084029F00C94F20451110C943D050C94F80415
S11308500E941A0568F39923B1F3552391F3951B6C
S1130860550BBB27AA2762177307840738F09F5FCD
S11308705F4F220F331F441FAA1FA9F335D00E2E3A
S11308803AF0E0E832D091505040E695001CCAF7A7
S11308902BD0FE2F29D0660F771F881FBB1F26176A
S11308A037074807AB07B0E809F0BB0B802DBF0141
S11308B0FF2793585F4F3AF09E3F510578F00C9410
S11308C0F2040C943D055F3FE4F3983ED4F386951F
S11308D077956795B795F7959F5FC9F7880F911D31
S11308E09695879597F90895E1E0660F771F881F1D
S11308F0BB1F621773078407BA0720F0621B730BD0
S1130900840BBA0BEE1F88F7E09508950E94220528
S113091088F09F5798F0B92F9927B751B0F0E1F0BC
S1130920660F771F881F991F1AF0BA95C9F714C06C
S1130930B13091F00E943C05B1E008950C943C055F
S1130940672F782F8827B85F39F0B93FCCF38695A5
S113095077956795B395D9F73EF490958095709502
S113096061957F4F8F4F9F4F0895E89409C097FB7F
S11309703EF490958095709561957F4F8F4F9F4F72
S11309809923A9F0F92F96E9BB279395F6958795B6
S113099077956795B795F111F8CFFAF4BB0F11F479
S11309A060FF1BC06F5F7F4F8F4F9F4F16C0882320
S11309B011F096E911C0772321F09EE8872F762F56
S11309C005C0662371F096E8862F70E060E02AF097
S11309D09A95660F771F881FDAF7880F9695879583
S11309E097F9089597F99F6780E870E060E00895AB
S11309F09FEF80EC089500240A9416161706180633
S1130A000906089500240A9412161306140605060E
S1130A100895092E0394000C11F4882352F0BB0F9F
S1130A2040F4BF2B11F460FF04C06F5F7F4F8F4F02
S1130A309F4F089557FD9058440F551F59F05F3F3D
S1130A4071F04795880F97FB991F61F09F3F79F0EC
S1130A5087950895121613061406551FF2CF46956E
S1130A60F1DF08C0161617061806991FF1CF8695F0
S1130A707105610508940895E894BB2766277727D4
S1130A80CB0197F908950E9456050C9409050E941C
S1130A90FB0438F00E94020520F0952311F00C9419
S1130AA0F2040C94F80411240C943D050E941A05D8
S1130AB070F3959FC1F3950F50E0551F629FF001AD
S1130AC0729FBB27F00DB11D639FAA27F00DB11DC6
S1130AD0AA1F649F6627B00DA11D661F829F22274F
S1130AE0B00DA11D621F739FB00DA11D621F839FD6
S1130AF0A00D611D221F749F3327A00D611D231FAC
S1130B00849F600D211D822F762F6A2F11249F57F9
S1130B1050409AF0F1F088234AF0EE0FFF1FBB1FFC
S1130B20661F771F881F91505040A9F79E3F5105BB
S1130B3080F00C94F2040C943D055F3FE4F3983E7E
S1130B40D4F3869577956795B795F795E7959F5F65
S1130B50C1F7FE2B880F911D9695879597F90895F7
S1130B60F999FECF92BD81BDF89A992780B5089571
S1130B70262FF999FECF92BD81BDF89A019700B452
S1130B80021639F01FBA20BD0FB6F894FA9AF99AF2
S10B0B900FBE0895F894FFCF95
S10F0B98030002000100310032003000B4
S9030000FC
